{
  "contractName": "ProofDevelodio",
  "abi": [
    {
      "inputs": [],
      "payable": false,
      "stateMutability": "nonpayable",
      "type": "constructor",
      "signature": "constructor"
    },
    {
      "payable": true,
      "stateMutability": "payable",
      "type": "fallback"
    },
    {
      "anonymous": false,
      "inputs": [
        {
          "indexed": false,
          "name": "status",
          "type": "bool"
        },
        {
          "indexed": false,
          "name": "timestamp",
          "type": "uint256"
        },
        {
          "indexed": false,
          "name": "firstname",
          "type": "string"
        },
        {
          "indexed": false,
          "name": "lastname",
          "type": "string"
        },
        {
          "indexed": false,
          "name": "email",
          "type": "string"
        },
        {
          "indexed": false,
          "name": "fileHash",
          "type": "string"
        },
        {
          "indexed": false,
          "name": "ipfsHash",
          "type": "string"
        },
        {
          "indexed": false,
          "name": "ipfsFileType",
          "type": "string"
        }
      ],
      "name": "logFileAddedStatus",
      "type": "event",
      "signature": "0xe05a20ec1fc8f3904651886da119ec9c016cb4246def2183f3de13f2e4eae679"
    },
    {
      "constant": false,
      "inputs": [
        {
          "name": "to",
          "type": "address"
        },
        {
          "name": "amount",
          "type": "uint256"
        }
      ],
      "name": "withdraw",
      "outputs": [],
      "payable": false,
      "stateMutability": "nonpayable",
      "type": "function",
      "signature": "0xf3fef3a3"
    },
    {
      "constant": false,
      "inputs": [
        {
          "name": "firstname",
          "type": "string"
        },
        {
          "name": "lastname",
          "type": "string"
        },
        {
          "name": "email",
          "type": "string"
        },
        {
          "name": "fileHash",
          "type": "string"
        },
        {
          "name": "ipfsHash",
          "type": "string"
        },
        {
          "name": "ipfsFileType",
          "type": "string"
        },
        {
          "name": "comments",
          "type": "string"
        }
      ],
      "name": "setFile",
      "outputs": [],
      "payable": true,
      "stateMutability": "payable",
      "type": "function",
      "signature": "0x1ec7d46f"
    },
    {
      "constant": false,
      "inputs": [
        {
          "name": "firstname",
          "type": "string"
        },
        {
          "name": "lastname",
          "type": "string"
        },
        {
          "name": "email",
          "type": "string"
        },
        {
          "name": "fileHash",
          "type": "string"
        }
      ],
      "name": "addOwner",
      "outputs": [],
      "payable": true,
      "stateMutability": "payable",
      "type": "function",
      "signature": "0xaac3b6c3"
    },
    {
      "constant": false,
      "inputs": [
        {
          "name": "fileHash",
          "type": "string"
        },
        {
          "name": "ownerNumber",
          "type": "uint256"
        }
      ],
      "name": "removeOwner",
      "outputs": [],
      "payable": true,
      "stateMutability": "payable",
      "type": "function",
      "signature": "0x4efb8a4b"
    },
    {
      "constant": true,
      "inputs": [
        {
          "name": "fileHash",
          "type": "string"
        }
      ],
      "name": "getFile",
      "outputs": [
        {
          "name": "timestamp",
          "type": "uint256"
        },
        {
          "name": "blockNumber",
          "type": "uint256"
        },
        {
          "name": "ipfsHash",
          "type": "string"
        },
        {
          "name": "ipfsFileType",
          "type": "string"
        },
        {
          "name": "ownerNumbers",
          "type": "uint256"
        },
        {
          "name": "comments",
          "type": "string"
        }
      ],
      "payable": false,
      "stateMutability": "view",
      "type": "function",
      "signature": "0xe0876aa8"
    },
    {
      "constant": true,
      "inputs": [
        {
          "name": "fileHash",
          "type": "string"
        }
      ],
      "name": "getMainFileOwner",
      "outputs": [
        {
          "name": "mainOwner",
          "type": "address"
        },
        {
          "name": "firstname",
          "type": "string"
        },
        {
          "name": "lastname",
          "type": "string"
        },
        {
          "name": "email",
          "type": "string"
        }
      ],
      "payable": false,
      "stateMutability": "view",
      "type": "function",
      "signature": "0x521c6040"
    },
    {
      "constant": true,
      "inputs": [
        {
          "name": "fileHash",
          "type": "string"
        },
        {
          "name": "ownerNumber",
          "type": "uint256"
        }
      ],
      "name": "getFileOwner",
      "outputs": [
        {
          "name": "ownerFirstName",
          "type": "string"
        },
        {
          "name": "ownerLastName",
          "type": "string"
        },
        {
          "name": "ownerEmail",
          "type": "string"
        }
      ],
      "payable": false,
      "stateMutability": "view",
      "type": "function",
      "signature": "0xcc261e68"
    }
  ],
  "bytecode": "0x608060405234801561001057600080fd5b50336000806101000a81548173ffffffffffffffffffffffffffffffffffffffff021916908373ffffffffffffffffffffffffffffffffffffffff160217905550613506806100606000396000f3fe60806040526004361061007d576000357c0100000000000000000000000000000000000000000000000000000000900480631ec7d46f1461007f5780634efb8a4b146104c4578063521c604014610589578063aac3b6c3146107d5578063cc261e6814610a55578063e0876aa814610c78578063f3fef3a314610ea6575b005b6104c2600480360360e081101561009557600080fd5b81019080803590602001906401000000008111156100b257600080fd5b8201836020820111156100c457600080fd5b803590602001918460018302840111640100000000831117156100e657600080fd5b91908080601f016020809104026020016040519081016040528093929190818152602001838380828437600081840152601f19601f8201169050808301925050505050505091929192908035906020019064010000000081111561014957600080fd5b82018360208201111561015b57600080fd5b8035906020019184600183028401116401000000008311171561017d57600080fd5b91908080601f016020809104026020016040519081016040528093929190818152602001838380828437600081840152601f19601f820116905080830192505050505050509192919290803590602001906401000000008111156101e057600080fd5b8201836020820111156101f257600080fd5b8035906020019184600183028401116401000000008311171561021457600080fd5b91908080601f016020809104026020016040519081016040528093929190818152602001838380828437600081840152601f19601f8201169050808301925050505050505091929192908035906020019064010000000081111561027757600080fd5b82018360208201111561028957600080fd5b803590602001918460018302840111640100000000831117156102ab57600080fd5b91908080601f016020809104026020016040519081016040528093929190818152602001838380828437600081840152601f19601f8201169050808301925050505050505091929192908035906020019064010000000081111561030e57600080fd5b82018360208201111561032057600080fd5b8035906020019184600183028401116401000000008311171561034257600080fd5b91908080601f016020809104026020016040519081016040528093929190818152602001838380828437600081840152601f19601f820116905080830192505050505050509192919290803590602001906401000000008111156103a557600080fd5b8201836020820111156103b757600080fd5b803590602001918460018302840111640100000000831117156103d957600080fd5b91908080601f016020809104026020016040519081016040528093929190818152602001838380828437600081840152601f19601f8201169050808301925050505050505091929192908035906020019064010000000081111561043c57600080fd5b82018360208201111561044e57600080fd5b8035906020019184600183028401116401000000008311171561047057600080fd5b91908080601f016020809104026020016040519081016040528093929190818152602001838380828437600081840152601f19601f820116905080830192505050505050509192919290505050610f01565b005b610587600480360360408110156104da57600080fd5b81019080803590602001906401000000008111156104f757600080fd5b82018360208201111561050957600080fd5b8035906020019184600183028401116401000000008311171561052b57600080fd5b91908080601f016020809104026020016040519081016040528093929190818152602001838380828437600081840152601f19601f820116905080830192505050505050509192919290803590602001909291905050506117a8565b005b34801561059557600080fd5b5061064f600480360360208110156105ac57600080fd5b81019080803590602001906401000000008111156105c957600080fd5b8201836020820111156105db57600080fd5b803590602001918460018302840111640100000000831117156105fd57600080fd5b91908080601f016020809104026020016040519081016040528093929190818152602001838380828437600081840152601f19601f8201169050808301925050505050505091929192905050506122da565b604051808573ffffffffffffffffffffffffffffffffffffffff1673ffffffffffffffffffffffffffffffffffffffff168152602001806020018060200180602001848103845287818151815260200191508051906020019080838360005b838110156106c95780820151818401526020810190506106ae565b50505050905090810190601f1680156106f65780820380516001836020036101000a031916815260200191505b50848103835286818151815260200191508051906020019080838360005b8381101561072f578082015181840152602081019050610714565b50505050905090810190601f16801561075c5780820380516001836020036101000a031916815260200191505b50848103825285818151815260200191508051906020019080838360005b8381101561079557808201518184015260208101905061077a565b50505050905090810190601f1680156107c25780820380516001836020036101000a031916815260200191505b5097505050505050505060405180910390f35b610a53600480360360808110156107eb57600080fd5b810190808035906020019064010000000081111561080857600080fd5b82018360208201111561081a57600080fd5b8035906020019184600183028401116401000000008311171561083c57600080fd5b91908080601f016020809104026020016040519081016040528093929190818152602001838380828437600081840152601f19601f8201169050808301925050505050505091929192908035906020019064010000000081111561089f57600080fd5b8201836020820111156108b157600080fd5b803590602001918460018302840111640100000000831117156108d357600080fd5b91908080601f016020809104026020016040519081016040528093929190818152602001838380828437600081840152601f19601f8201169050808301925050505050505091929192908035906020019064010000000081111561093657600080fd5b82018360208201111561094857600080fd5b8035906020019184600183028401116401000000008311171561096a57600080fd5b91908080601f016020809104026020016040519081016040528093929190818152602001838380828437600081840152601f19601f820116905080830192505050505050509192919290803590602001906401000000008111156109cd57600080fd5b8201836020820111156109df57600080fd5b80359060200191846001830284011164010000000083111715610a0157600080fd5b91908080601f016020809104026020016040519081016040528093929190818152602001838380828437600081840152601f19601f820116905080830192505050505050509192919290505050612862565b005b348015610a6157600080fd5b50610b2560048036036040811015610a7857600080fd5b8101908080359060200190640100000000811115610a9557600080fd5b820183602082011115610aa757600080fd5b80359060200191846001830284011164010000000083111715610ac957600080fd5b91908080601f016020809104026020016040519081016040528093929190818152602001838380828437600081840152601f19601f82011690508083019250505050505050919291929080359060200190929190505050612b9f565b60405180806020018060200180602001848103845287818151815260200191508051906020019080838360005b83811015610b6d578082015181840152602081019050610b52565b50505050905090810190601f168015610b9a5780820380516001836020036101000a031916815260200191505b50848103835286818151815260200191508051906020019080838360005b83811015610bd3578082015181840152602081019050610bb8565b50505050905090810190601f168015610c005780820380516001836020036101000a031916815260200191505b50848103825285818151815260200191508051906020019080838360005b83811015610c39578082015181840152602081019050610c1e565b50505050905090810190601f168015610c665780820380516001836020036101000a031916815260200191505b50965050505050505060405180910390f35b348015610c8457600080fd5b50610d3e60048036036020811015610c9b57600080fd5b8101908080359060200190640100000000811115610cb857600080fd5b820183602082011115610cca57600080fd5b80359060200191846001830284011164010000000083111715610cec57600080fd5b91908080601f016020809104026020016040519081016040528093929190818152602001838380828437600081840152601f19601f820116905080830192505050505050509192919290505050612f02565b60405180878152602001868152602001806020018060200185815260200180602001848103845288818151815260200191508051906020019080838360005b83811015610d98578082015181840152602081019050610d7d565b50505050905090810190601f168015610dc55780820380516001836020036101000a031916815260200191505b50848103835287818151815260200191508051906020019080838360005b83811015610dfe578082015181840152602081019050610de3565b50505050905090810190601f168015610e2b5780820380516001836020036101000a031916815260200191505b50848103825285818151815260200191508051906020019080838360005b83811015610e64578082015181840152602081019050610e49565b50505050905090810190601f168015610e915780820380516001836020036101000a031916815260200191505b50995050505050505050505060405180910390f35b348015610eb257600080fd5b50610eff60048036036040811015610ec957600080fd5b81019080803573ffffffffffffffffffffffffffffffffffffffff16906020019092919080359060200190929190505050613224565b005b6611c37937e080003410151515610f1757600080fd5b60006002856040518082805190602001908083835b602083101515610f515780518252602082019150602081019050602083039250610f2c565b6001836020036101000a03801982511681845116808217855250505050505090500191505090815260200160405180910390206000015414156114cc57606060405190810160405280888152602001878152602001868152506001856040518082805190602001908083835b602083101515610fe25780518252602082019150602081019050602083039250610fbd565b6001836020036101000a0380198251168184511680821785525050505050509050019150509081526020016040518091039020600080815260200190815260200160002060008201518160000190805190602001906110429291906132f0565b50602082015181600101908051906020019061105f9291906132f0565b50604082015181600201908051906020019061107c9291906132f0565b5090505060e060405190810160405280428152602001438152602001600081526020013373ffffffffffffffffffffffffffffffffffffffff168152602001848152602001838152602001828152506002856040518082805190602001908083835b60208310151561110357805182526020820191506020810190506020830392506110de565b6001836020036101000a038019825116818451168082178552505050505050905001915050908152602001604051809103902060008201518160000155602082015181600101556040820151816002015560608201518160030160006101000a81548173ffffffffffffffffffffffffffffffffffffffff021916908373ffffffffffffffffffffffffffffffffffffffff16021790555060808201518160040190805190602001906111b79291906132f0565b5060a08201518160050190805190602001906111d49291906132f0565b5060c08201518160060190805190602001906111f19291906132f0565b509050507fe05a20ec1fc8f3904651886da119ec9c016cb4246def2183f3de13f2e4eae679600142898989898989604051808915151515815260200188815260200180602001806020018060200180602001806020018060200187810387528d818151815260200191508051906020019080838360005b83811015611283578082015181840152602081019050611268565b50505050905090810190601f1680156112b05780820380516001836020036101000a031916815260200191505b5087810386528c818151815260200191508051906020019080838360005b838110156112e95780820151818401526020810190506112ce565b50505050905090810190601f1680156113165780820380516001836020036101000a031916815260200191505b5087810385528b818151815260200191508051906020019080838360005b8381101561134f578082015181840152602081019050611334565b50505050905090810190601f16801561137c5780820380516001836020036101000a031916815260200191505b5087810384528a818151815260200191508051906020019080838360005b838110156113b557808201518184015260208101905061139a565b50505050905090810190601f1680156113e25780820380516001836020036101000a031916815260200191505b50878103835289818151815260200191508051906020019080838360005b8381101561141b578082015181840152602081019050611400565b50505050905090810190601f1680156114485780820380516001836020036101000a031916815260200191505b50878103825288818151815260200191508051906020019080838360005b83811015611481578082015181840152602081019050611466565b50505050905090810190601f1680156114ae5780820380516001836020036101000a031916815260200191505b509e50505050505050505050505050505060405180910390a161179f565b7fe05a20ec1fc8f3904651886da119ec9c016cb4246def2183f3de13f2e4eae679600042898989898989604051808915151515815260200188815260200180602001806020018060200180602001806020018060200187810387528d818151815260200191508051906020019080838360005b8381101561155a57808201518184015260208101905061153f565b50505050905090810190601f1680156115875780820380516001836020036101000a031916815260200191505b5087810386528c818151815260200191508051906020019080838360005b838110156115c05780820151818401526020810190506115a5565b50505050905090810190601f1680156115ed5780820380516001836020036101000a031916815260200191505b5087810385528b818151815260200191508051906020019080838360005b8381101561162657808201518184015260208101905061160b565b50505050905090810190601f1680156116535780820380516001836020036101000a031916815260200191505b5087810384528a818151815260200191508051906020019080838360005b8381101561168c578082015181840152602081019050611671565b50505050905090810190601f1680156116b95780820380516001836020036101000a031916815260200191505b50878103835289818151815260200191508051906020019080838360005b838110156116f25780820151818401526020810190506116d7565b50505050905090810190601f16801561171f5780820380516001836020036101000a031916815260200191505b50878103825288818151815260200191508051906020019080838360005b8381101561175857808201518184015260208101905061173d565b50505050905090810190601f1680156117855780820380516001836020036101000a031916815260200191505b509e50505050505050505050505050505060405180910390a15b50505050505050565b6611c37937e0800034101515156117be57600080fd5b816002816040518082805190602001908083835b6020831015156117f757805182526020820191506020810190506020830392506117d2565b6001836020036101000a038019825116818451168082178552505050505050905001915050908152602001604051809103902060030160009054906101000a900473ffffffffffffffffffffffffffffffffffffffff1673ffffffffffffffffffffffffffffffffffffffff163373ffffffffffffffffffffffffffffffffffffffff1614151561188757600080fd5b60008211151561189657600080fd5b60006002846040518082805190602001908083835b6020831015156118d057805182526020820191506020810190506020830392506118ab565b6001836020036101000a0380198251168184511680821785525050505050509050019150509081526020016040518091039020600001541415156122d557816002846040518082805190602001908083835b6020831015156119475780518252602082019150602081019050602083039250611922565b6001836020036101000a0380198251168184511680821785525050505050509050019150509081526020016040518091039020600201541015151561198b57600080fd5b600080905060006002856040518082805190602001908083835b6020831015156119ca57805182526020820191506020810190506020830392506119a5565b6001836020036101000a038019825116818451168082178552505050505050905001915050908152602001604051809103902060020154905060008090505b8181111515612194578260ff1660011415611b99576001866040518082805190602001908083835b602083101515611a565780518252602082019150602081019050602083039250611a31565b6001836020036101000a038019825116818451168082178552505050505050905001915050908152602001604051809103902060008281526020019081526020016000206001876040518082805190602001908083835b602083101515611ad25780518252602082019150602081019050602083039250611aad565b6001836020036101000a0380198251168184511680821785525050505050509050019150509081526020016040518091039020600060018403815260200190815260200160002060008201816000019080546001816001161561010002031660029004611b40929190613370565b5060018201816001019080546001816001161561010002031660029004611b68929190613370565b5060028201816002019080546001816001161561010002031660029004611b90929190613370565b50905050612187565b6001866040518082805190602001908083835b602083101515611bd15780518252602082019150602081019050602083039250611bac565b6001836020036101000a038019825116818451168082178552505050505050905001915050908152602001604051809103902060008281526020019081526020016000206000016040516020018082805460018160011615610100020316600290048015611c765780601f10611c54576101008083540402835291820191611c76565b820191906000526020600020905b815481529060010190602001808311611c62575b5050915050604051602081830303815290604052805190602001206001876040518082805190602001908083835b602083101515611cc95780518252602082019150602081019050602083039250611ca4565b6001836020036101000a038019825116818451168082178552505050505050905001915050908152602001604051809103902060008781526020019081526020016000206000016040516020018082805460018160011615610100020316600290048015611d6e5780601f10611d4c576101008083540402835291820191611d6e565b820191906000526020600020905b815481529060010190602001808311611d5a575b505091505060405160208183030381529060405280519060200120148015611f8357506001866040518082805190602001908083835b602083101515611dc95780518252602082019150602081019050602083039250611da4565b6001836020036101000a038019825116818451168082178552505050505050905001915050908152602001604051809103902060008281526020019081526020016000206001016040516020018082805460018160011615610100020316600290048015611e6e5780601f10611e4c576101008083540402835291820191611e6e565b820191906000526020600020905b815481529060010190602001808311611e5a575b5050915050604051602081830303815290604052805190602001206001876040518082805190602001908083835b602083101515611ec15780518252602082019150602081019050602083039250611e9c565b6001836020036101000a038019825116818451168082178552505050505050905001915050908152602001604051809103902060008781526020019081526020016000206001016040516020018082805460018160011615610100020316600290048015611f665780601f10611f44576101008083540402835291820191611f66565b820191906000526020600020905b815481529060010190602001808311611f52575b505091505060405160208183030381529060405280519060200120145b801561217c57506001866040518082805190602001908083835b602083101515611fc25780518252602082019150602081019050602083039250611f9d565b6001836020036101000a0380198251168184511680821785525050505050509050019150509081526020016040518091039020600082815260200190815260200160002060020160405160200180828054600181600116156101000203166002900480156120675780601f10612045576101008083540402835291820191612067565b820191906000526020600020905b815481529060010190602001808311612053575b5050915050604051602081830303815290604052805190602001206001876040518082805190602001908083835b6020831015156120ba5780518252602082019150602081019050602083039250612095565b6001836020036101000a03801982511681845116808217855250505050505090500191505090815260200160405180910390206000878152602001908152602001600020600201604051602001808280546001816001161561010002031660029004801561215f5780601f1061213d57610100808354040283529182019161215f565b820191906000526020600020905b81548152906001019060200180831161214b575b505091505060405160208183030381529060405280519060200120145b1561218657600192505b5b8080600101915050611a09565b5060018260ff161415156121a457fe5b6001856040518082805190602001908083835b6020831015156121dc57805182526020820191506020810190506020830392506121b7565b6001836020036101000a038019825116818451168082178552505050505050905001915050908152602001604051809103902060008281526020019081526020016000206000808201600061223191906133f7565b60018201600061224191906133f7565b60028201600061225191906133f7565b50506002856040518082805190602001908083835b60208310151561228b5780518252602082019150602081019050602083039250612266565b6001836020036101000a0380198251168184511680821785525050505050509050019150509081526020016040518091039020600201600081548092919060019003919050555050505b505050565b600060608060606122e961343f565b6002866040518082805190602001908083835b60208310151561232157805182526020820191506020810190506020830392506122fc565b6001836020036101000a038019825116818451168082178552505050505050905001915050908152602001604051809103902060e060405190810160405290816000820154815260200160018201548152602001600282015481526020016003820160009054906101000a900473ffffffffffffffffffffffffffffffffffffffff1673ffffffffffffffffffffffffffffffffffffffff1673ffffffffffffffffffffffffffffffffffffffff168152602001600482018054600181600116156101000203166002900480601f01602080910402602001604051908101604052809291908181526020018280546001816001161561010002031660029004801561246d5780601f106124425761010080835404028352916020019161246d565b820191906000526020600020905b81548152906001019060200180831161245057829003601f168201915b50505050508152602001600582018054600181600116156101000203166002900480601f01602080910402602001604051908101604052809291908181526020018280546001816001161561010002031660029004801561250f5780601f106124e45761010080835404028352916020019161250f565b820191906000526020600020905b8154815290600101906020018083116124f257829003601f168201915b50505050508152602001600682018054600181600116156101000203166002900480601f0160208091040260200160405190810160405280929190818152602001828054600181600116156101000203166002900480156125b15780601f10612586576101008083540402835291602001916125b1565b820191906000526020600020905b81548152906001019060200180831161259457829003601f168201915b50505050508152505090506125c4613493565b6001876040518082805190602001908083835b6020831015156125fc57805182526020820191506020810190506020830392506125d7565b6001836020036101000a0380198251168184511680821785525050505050509050019150509081526020016040518091039020600080815260200190815260200160002060606040519081016040529081600082018054600181600116156101000203166002900480601f0160208091040260200160405190810160405280929190818152602001828054600181600116156101000203166002900480156126e55780601f106126ba576101008083540402835291602001916126e5565b820191906000526020600020905b8154815290600101906020018083116126c857829003601f168201915b50505050508152602001600182018054600181600116156101000203166002900480601f0160208091040260200160405190810160405280929190818152602001828054600181600116156101000203166002900480156127875780601f1061275c57610100808354040283529160200191612787565b820191906000526020600020905b81548152906001019060200180831161276a57829003601f168201915b50505050508152602001600282018054600181600116156101000203166002900480601f0160208091040260200160405190810160405280929190818152602001828054600181600116156101000203166002900480156128295780601f106127fe57610100808354040283529160200191612829565b820191906000526020600020905b81548152906001019060200180831161280c57829003601f168201915b50505050508152505090508160600151816000015182602001518360400151829250819150809050955095509550955050509193509193565b6611c37937e08000341015151561287857600080fd5b806002816040518082805190602001908083835b6020831015156128b1578051825260208201915060208101905060208303925061288c565b6001836020036101000a038019825116818451168082178552505050505050905001915050908152602001604051809103902060030160009054906101000a900473ffffffffffffffffffffffffffffffffffffffff1673ffffffffffffffffffffffffffffffffffffffff163373ffffffffffffffffffffffffffffffffffffffff1614151561294157600080fd5b60006002836040518082805190602001908083835b60208310151561297b5780518252602082019150602081019050602083039250612956565b6001836020036101000a038019825116818451168082178552505050505050905001915050908152602001604051809103902060000154141515612b98576002826040518082805190602001908083835b6020831015156129f157805182526020820191506020810190506020830392506129cc565b6001836020036101000a038019825116818451168082178552505050505050905001915050908152602001604051809103902060020160008154809291906001019190505550606060405190810160405280868152602001858152602001848152506001836040518082805190602001908083835b602083101515612a8b5780518252602082019150602081019050602083039250612a66565b6001836020036101000a038019825116818451168082178552505050505050905001915050908152602001604051809103902060006002856040518082805190602001908083835b602083101515612af85780518252602082019150602081019050602083039250612ad3565b6001836020036101000a03801982511681845116808217855250505050505090500191505090815260200160405180910390206002015481526020019081526020016000206000820151816000019080519060200190612b599291906132f0565b506020820151816001019080519060200190612b769291906132f0565b506040820151816002019080519060200190612b939291906132f0565b509050505b5050505050565b60608060606001856040518082805190602001908083835b602083101515612bdc5780518252602082019150602081019050602083039250612bb7565b6001836020036101000a038019825116818451168082178552505050505050905001915050908152602001604051809103902060008581526020019081526020016000206000016001866040518082805190602001908083835b602083101515612c5b5780518252602082019150602081019050602083039250612c36565b6001836020036101000a038019825116818451168082178552505050505050905001915050908152602001604051809103902060008681526020019081526020016000206001016001876040518082805190602001908083835b602083101515612cda5780518252602082019150602081019050602083039250612cb5565b6001836020036101000a03801982511681845116808217855250505050505090500191505090815260200160405180910390206000878152602001908152602001600020600201828054600181600116156101000203166002900480601f016020809104026020016040519081016040528092919081815260200182805460018160011615610100020316600290048015612db65780601f10612d8b57610100808354040283529160200191612db6565b820191906000526020600020905b815481529060010190602001808311612d9957829003601f168201915b50505050509250818054600181600116156101000203166002900480601f016020809104026020016040519081016040528092919081815260200182805460018160011615610100020316600290048015612e525780601f10612e2757610100808354040283529160200191612e52565b820191906000526020600020905b815481529060010190602001808311612e3557829003601f168201915b50505050509150808054600181600116156101000203166002900480601f016020809104026020016040519081016040528092919081815260200182805460018160011615610100020316600290048015612eee5780601f10612ec357610100808354040283529160200191612eee565b820191906000526020600020905b815481529060010190602001808311612ed157829003601f168201915b505050505090509250925092509250925092565b60008060608060006060612f1461343f565b6002886040518082805190602001908083835b602083101515612f4c5780518252602082019150602081019050602083039250612f27565b6001836020036101000a038019825116818451168082178552505050505050905001915050908152602001604051809103902060e060405190810160405290816000820154815260200160018201548152602001600282015481526020016003820160009054906101000a900473ffffffffffffffffffffffffffffffffffffffff1673ffffffffffffffffffffffffffffffffffffffff1673ffffffffffffffffffffffffffffffffffffffff168152602001600482018054600181600116156101000203166002900480601f0160208091040260200160405190810160405280929190818152602001828054600181600116156101000203166002900480156130985780601f1061306d57610100808354040283529160200191613098565b820191906000526020600020905b81548152906001019060200180831161307b57829003601f168201915b50505050508152602001600582018054600181600116156101000203166002900480601f01602080910402602001604051908101604052809291908181526020018280546001816001161561010002031660029004801561313a5780601f1061310f5761010080835404028352916020019161313a565b820191906000526020600020905b81548152906001019060200180831161311d57829003601f168201915b50505050508152602001600682018054600181600116156101000203166002900480601f0160208091040260200160405190810160405280929190818152602001828054600181600116156101000203166002900480156131dc5780601f106131b1576101008083540402835291602001916131dc565b820191906000526020600020905b8154815290600101906020018083116131bf57829003601f168201915b50505050508152505090508060000151816020015182608001518360a0015184604001518560c001518393508292508090509650965096509650965096505091939550919395565b6000809054906101000a900473ffffffffffffffffffffffffffffffffffffffff1673ffffffffffffffffffffffffffffffffffffffff163373ffffffffffffffffffffffffffffffffffffffff1614151561327f57600080fd5b803073ffffffffffffffffffffffffffffffffffffffff1631101515156132a557600080fd5b8173ffffffffffffffffffffffffffffffffffffffff166108fc829081150290604051600060405180830381858888f193505050501580156132eb573d6000803e3d6000fd5b505050565b828054600181600116156101000203166002900490600052602060002090601f016020900481019282601f1061333157805160ff191683800117855561335f565b8280016001018555821561335f579182015b8281111561335e578251825591602001919060010190613343565b5b50905061336c91906134b5565b5090565b828054600181600116156101000203166002900490600052602060002090601f016020900481019282601f106133a957805485556133e6565b828001600101855582156133e657600052602060002091601f016020900482015b828111156133e55782548255916001019190600101906133ca565b5b5090506133f391906134b5565b5090565b50805460018160011615610100020316600290046000825580601f1061341d575061343c565b601f01602090049060005260206000209081019061343b91906134b5565b5b50565b60e060405190810160405280600081526020016000815260200160008152602001600073ffffffffffffffffffffffffffffffffffffffff1681526020016060815260200160608152602001606081525090565b6060604051908101604052806060815260200160608152602001606081525090565b6134d791905b808211156134d35760008160009055506001016134bb565b5090565b9056fea165627a7a72305820bed25d6abb6a5388e5f0764a12ad9e49c18e93bf17ba5273f0eaaab5c25a1a580029",
  "source": "pragma solidity >=0.4.22 <0.6.0;\r\n\r\ncontract ProofDevelodio\r\n{\r\n    address private _owner;\r\n\r\n    struct OwnerDetails {\r\n        string firstname;\r\n        string lastname;\r\n        string email;\r\n    }\r\n\r\n    mapping(string => mapping(uint => OwnerDetails)) _owners;\r\n\r\n    struct FileDetails {\r\n        uint timestamp;\r\n        uint blockNumber;\r\n        uint ownerNumbers;\r\n        address mainOwner;\r\n        string ipfsHash;\r\n        string ipfsFileType;\r\n        string comments;\r\n    }\r\n\r\n    mapping(string => FileDetails) _files;\r\n\r\n    modifier validOwner() {\r\n        require(msg.sender == _owner);\r\n        _;\r\n    }\r\n\r\n    modifier validValue() {\r\n        require(msg.value >= 5000000000000000);\r\n        _;\r\n    }\r\n\r\n    modifier validMainFileOwner(string memory fileHash) {\r\n        require(msg.sender == _files[fileHash].mainOwner);\r\n        _;\r\n    }\r\n\r\n    event logFileAddedStatus(bool status, uint timestamp, string firstname, string lastname, string email, string fileHash, string ipfsHash, string ipfsFileType);\r\n\r\n    constructor() public {\r\n        _owner = msg.sender;\r\n    }\r\n\r\n    function() external payable {}\r\n\r\n    function withdraw(address payable to, uint amount) validOwner public {\r\n        require(address(this).balance >= amount);\r\n        to.transfer(amount);\r\n    }\r\n\r\n    function setFile(string memory firstname, string memory lastname, string memory email, string memory fileHash, string memory ipfsHash, string memory ipfsFileType, string memory comments) validValue public payable {\r\n        if (_files[fileHash].timestamp == 0) {\r\n            _owners[fileHash][0] = OwnerDetails(firstname, lastname, email);\r\n            _files[fileHash] = FileDetails(block.timestamp, block.number, 0, msg.sender, ipfsHash, ipfsFileType, comments);\r\n            emit logFileAddedStatus(true, block.timestamp, firstname, lastname, email, fileHash, ipfsHash, ipfsFileType);\r\n        }\r\n        else {\r\n            emit logFileAddedStatus(false, block.timestamp, firstname, lastname, email, fileHash, ipfsHash, ipfsFileType);\r\n        }\r\n    }\r\n\r\n    function addOwner(string memory firstname, string memory lastname, string memory email, string memory fileHash) validValue validMainFileOwner(fileHash) public payable {\r\n        if (_files[fileHash].timestamp != 0) {\r\n            _files[fileHash].ownerNumbers++;\r\n            _owners[fileHash][_files[fileHash].ownerNumbers] = OwnerDetails(firstname, lastname, email);\r\n        }\r\n    }\r\n\r\n    function removeOwner(string memory fileHash, uint ownerNumber) validValue validMainFileOwner(fileHash) public payable {\r\n        require(ownerNumber > 0);\r\n        if (_files[fileHash].timestamp != 0) {\r\n            require(_files[fileHash].ownerNumbers >= ownerNumber);\r\n            uint8 replace = 0;\r\n            uint length = _files[fileHash].ownerNumbers;\r\n            for(uint i = 0; i <= length; i++) {\r\n                if (1 == replace) {\r\n                        _owners[fileHash][i-1] = _owners[fileHash][i];\r\n                    } else if (keccak256(abi.encodePacked(_owners[fileHash][ownerNumber].firstname)) == keccak256(abi.encodePacked(_owners[fileHash][i].firstname))\r\n                    && keccak256(abi.encodePacked(_owners[fileHash][ownerNumber].lastname)) == keccak256(abi.encodePacked(_owners[fileHash][i].lastname))\r\n                    && keccak256(abi.encodePacked(_owners[fileHash][ownerNumber].email)) == keccak256(abi.encodePacked(_owners[fileHash][i].email))) {\r\n                        replace = 1;\r\n                }\r\n            }\r\n            assert(replace == 1);\r\n            delete _owners[fileHash][length];\r\n            _files[fileHash].ownerNumbers--;\r\n        }\r\n    }\r\n\r\n    function getFile(string memory fileHash) public view returns (\r\n        uint timestamp,\r\n        uint blockNumber,\r\n        string memory ipfsHash,\r\n        string memory ipfsFileType,\r\n        uint ownerNumbers,\r\n        string memory comments)\r\n    {\r\n        FileDetails memory fileDetails = _files[fileHash];\r\n        return (\r\n            fileDetails.timestamp,\r\n            fileDetails.blockNumber,\r\n            fileDetails.ipfsHash,\r\n            fileDetails.ipfsFileType,\r\n            fileDetails.ownerNumbers,\r\n            fileDetails.comments\r\n        );\r\n    }\r\n\r\n    function getMainFileOwner(string memory fileHash) public view returns (\r\n        address mainOwner,\r\n        string memory firstname,\r\n        string memory lastname,\r\n        string memory email)\r\n    {\r\n        FileDetails memory fileDetails = _files[fileHash];\r\n        OwnerDetails memory ownerDetails = _owners[fileHash][0];\r\n        return (\r\n            fileDetails.mainOwner,\r\n            ownerDetails.firstname,\r\n            ownerDetails.lastname,\r\n            ownerDetails.email\r\n        );\r\n    }\r\n\r\n    function getFileOwner(string memory fileHash, uint ownerNumber) public view returns (\r\n        string memory ownerFirstName,\r\n        string memory ownerLastName,\r\n        string memory ownerEmail) {\r\n        return (\r\n            _owners[fileHash][ownerNumber].firstname,\r\n            _owners[fileHash][ownerNumber].lastname,\r\n            _owners[fileHash][ownerNumber].email\r\n        );\r\n    }\r\n\r\n}\r\n",
  "sourcePath": "E:/simeon/DVLToken/contracts/ProofDevelodio.sol",
  "compiler": {
    "name": "solc",
    "version": "0.5.1+commit.c8a2cb62.Emscripten.clang"
  },
  "schemaVersion": "3.0.0-beta.2",
  "updatedAt": "2018-12-05T08:32:44.036Z",
  "devdoc": {
    "methods": {}
  },
  "userdoc": {
    "methods": {}
  }
}