{
  "contractName": "ProofDevelodio",
  "abi": [
    {
      "constant": true,
      "inputs": [
        {
          "name": "",
          "type": "address"
        }
      ],
      "name": "payers",
      "outputs": [
        {
          "name": "",
          "type": "uint256"
        }
      ],
      "payable": false,
      "stateMutability": "view",
      "type": "function",
      "signature": "0x4a714c24"
    },
    {
      "inputs": [],
      "payable": false,
      "stateMutability": "nonpayable",
      "type": "constructor",
      "signature": "constructor"
    },
    {
      "payable": true,
      "stateMutability": "payable",
      "type": "fallback"
    },
    {
      "anonymous": false,
      "inputs": [
        {
          "indexed": false,
          "name": "status",
          "type": "bool"
        },
        {
          "indexed": false,
          "name": "timestamp",
          "type": "uint256"
        },
        {
          "indexed": false,
          "name": "firstname",
          "type": "string"
        },
        {
          "indexed": false,
          "name": "lastname",
          "type": "string"
        },
        {
          "indexed": false,
          "name": "email",
          "type": "string"
        },
        {
          "indexed": false,
          "name": "fileHash",
          "type": "string"
        },
        {
          "indexed": false,
          "name": "ipfsHash",
          "type": "string"
        },
        {
          "indexed": false,
          "name": "ipfsFileType",
          "type": "string"
        }
      ],
      "name": "logFileAddedStatus",
      "type": "event",
      "signature": "0xe05a20ec1fc8f3904651886da119ec9c016cb4246def2183f3de13f2e4eae679"
    },
    {
      "constant": false,
      "inputs": [
        {
          "name": "_from",
          "type": "address"
        },
        {
          "name": "_value",
          "type": "uint256"
        },
        {
          "name": "_token",
          "type": "address"
        },
        {
          "name": "_extraData",
          "type": "bytes"
        }
      ],
      "name": "receiveApproval",
      "outputs": [],
      "payable": false,
      "stateMutability": "nonpayable",
      "type": "function",
      "signature": "0x8f4ffcb1"
    },
    {
      "constant": false,
      "inputs": [
        {
          "name": "to",
          "type": "address"
        },
        {
          "name": "amount",
          "type": "uint256"
        }
      ],
      "name": "withdraw",
      "outputs": [],
      "payable": false,
      "stateMutability": "nonpayable",
      "type": "function",
      "signature": "0xf3fef3a3"
    },
    {
      "constant": false,
      "inputs": [
        {
          "name": "firstname",
          "type": "string"
        },
        {
          "name": "lastname",
          "type": "string"
        },
        {
          "name": "email",
          "type": "string"
        },
        {
          "name": "fileHash",
          "type": "string"
        },
        {
          "name": "ipfsHash",
          "type": "string"
        },
        {
          "name": "ipfsFileType",
          "type": "string"
        },
        {
          "name": "comments",
          "type": "string"
        }
      ],
      "name": "setFile",
      "outputs": [],
      "payable": true,
      "stateMutability": "payable",
      "type": "function",
      "signature": "0x1ec7d46f"
    },
    {
      "constant": false,
      "inputs": [
        {
          "name": "firstname",
          "type": "string"
        },
        {
          "name": "lastname",
          "type": "string"
        },
        {
          "name": "email",
          "type": "string"
        },
        {
          "name": "fileHash",
          "type": "string"
        }
      ],
      "name": "addOwner",
      "outputs": [],
      "payable": true,
      "stateMutability": "payable",
      "type": "function",
      "signature": "0xaac3b6c3"
    },
    {
      "constant": false,
      "inputs": [
        {
          "name": "fileHash",
          "type": "string"
        },
        {
          "name": "ownerNumber",
          "type": "uint256"
        }
      ],
      "name": "removeOwner",
      "outputs": [],
      "payable": true,
      "stateMutability": "payable",
      "type": "function",
      "signature": "0x4efb8a4b"
    },
    {
      "constant": true,
      "inputs": [
        {
          "name": "fileHash",
          "type": "string"
        }
      ],
      "name": "getFile",
      "outputs": [
        {
          "name": "timestamp",
          "type": "uint256"
        },
        {
          "name": "blockNumber",
          "type": "uint256"
        },
        {
          "name": "ipfsHash",
          "type": "string"
        },
        {
          "name": "ipfsFileType",
          "type": "string"
        },
        {
          "name": "ownerNumbers",
          "type": "uint256"
        },
        {
          "name": "comments",
          "type": "string"
        }
      ],
      "payable": false,
      "stateMutability": "view",
      "type": "function",
      "signature": "0xe0876aa8"
    },
    {
      "constant": true,
      "inputs": [
        {
          "name": "fileHash",
          "type": "string"
        }
      ],
      "name": "getMainFileOwner",
      "outputs": [
        {
          "name": "mainOwner",
          "type": "address"
        },
        {
          "name": "firstname",
          "type": "string"
        },
        {
          "name": "lastname",
          "type": "string"
        },
        {
          "name": "email",
          "type": "string"
        }
      ],
      "payable": false,
      "stateMutability": "view",
      "type": "function",
      "signature": "0x521c6040"
    },
    {
      "constant": true,
      "inputs": [
        {
          "name": "fileHash",
          "type": "string"
        },
        {
          "name": "ownerNumber",
          "type": "uint256"
        }
      ],
      "name": "getFileOwner",
      "outputs": [
        {
          "name": "ownerFirstName",
          "type": "string"
        },
        {
          "name": "ownerLastName",
          "type": "string"
        },
        {
          "name": "ownerEmail",
          "type": "string"
        }
      ],
      "payable": false,
      "stateMutability": "view",
      "type": "function",
      "signature": "0xcc261e68"
    }
  ],
  "bytecode": "0x608060405234801561001057600080fd5b50336000806101000a81548173ffffffffffffffffffffffffffffffffffffffff021916908373ffffffffffffffffffffffffffffffffffffffff160217905550613821806100606000396000f3fe608060405260043610610093576000357c0100000000000000000000000000000000000000000000000000000000900480631ec7d46f146100955780634a714c24146104da5780634efb8a4b1461053f578063521c6040146106045780638f4ffcb114610850578063aac3b6c314610962578063cc261e6814610be2578063e0876aa814610e05578063f3fef3a314611033575b005b6104d8600480360360e08110156100ab57600080fd5b81019080803590602001906401000000008111156100c857600080fd5b8201836020820111156100da57600080fd5b803590602001918460018302840111640100000000831117156100fc57600080fd5b91908080601f016020809104026020016040519081016040528093929190818152602001838380828437600081840152601f19601f8201169050808301925050505050505091929192908035906020019064010000000081111561015f57600080fd5b82018360208201111561017157600080fd5b8035906020019184600183028401116401000000008311171561019357600080fd5b91908080601f016020809104026020016040519081016040528093929190818152602001838380828437600081840152601f19601f820116905080830192505050505050509192919290803590602001906401000000008111156101f657600080fd5b82018360208201111561020857600080fd5b8035906020019184600183028401116401000000008311171561022a57600080fd5b91908080601f016020809104026020016040519081016040528093929190818152602001838380828437600081840152601f19601f8201169050808301925050505050505091929192908035906020019064010000000081111561028d57600080fd5b82018360208201111561029f57600080fd5b803590602001918460018302840111640100000000831117156102c157600080fd5b91908080601f016020809104026020016040519081016040528093929190818152602001838380828437600081840152601f19601f8201169050808301925050505050505091929192908035906020019064010000000081111561032457600080fd5b82018360208201111561033657600080fd5b8035906020019184600183028401116401000000008311171561035857600080fd5b91908080601f016020809104026020016040519081016040528093929190818152602001838380828437600081840152601f19601f820116905080830192505050505050509192919290803590602001906401000000008111156103bb57600080fd5b8201836020820111156103cd57600080fd5b803590602001918460018302840111640100000000831117156103ef57600080fd5b91908080601f016020809104026020016040519081016040528093929190818152602001838380828437600081840152601f19601f8201169050808301925050505050505091929192908035906020019064010000000081111561045257600080fd5b82018360208201111561046457600080fd5b8035906020019184600183028401116401000000008311171561048657600080fd5b91908080601f016020809104026020016040519081016040528093929190818152602001838380828437600081840152601f19601f82011690508083019250505050505050919291929050505061108e565b005b3480156104e657600080fd5b50610529600480360360208110156104fd57600080fd5b81019080803573ffffffffffffffffffffffffffffffffffffffff169060200190929190505050611935565b6040518082815260200191505060405180910390f35b6106026004803603604081101561055557600080fd5b810190808035906020019064010000000081111561057257600080fd5b82018360208201111561058457600080fd5b803590602001918460018302840111640100000000831117156105a657600080fd5b91908080601f016020809104026020016040519081016040528093929190818152602001838380828437600081840152601f19601f8201169050808301925050505050505091929192908035906020019092919050505061194d565b005b34801561061057600080fd5b506106ca6004803603602081101561062757600080fd5b810190808035906020019064010000000081111561064457600080fd5b82018360208201111561065657600080fd5b8035906020019184600183028401116401000000008311171561067857600080fd5b91908080601f016020809104026020016040519081016040528093929190818152602001838380828437600081840152601f19601f82011690508083019250505050505050919291929050505061247f565b604051808573ffffffffffffffffffffffffffffffffffffffff1673ffffffffffffffffffffffffffffffffffffffff168152602001806020018060200180602001848103845287818151815260200191508051906020019080838360005b83811015610744578082015181840152602081019050610729565b50505050905090810190601f1680156107715780820380516001836020036101000a031916815260200191505b50848103835286818151815260200191508051906020019080838360005b838110156107aa57808201518184015260208101905061078f565b50505050905090810190601f1680156107d75780820380516001836020036101000a031916815260200191505b50848103825285818151815260200191508051906020019080838360005b838110156108105780820151818401526020810190506107f5565b50505050905090810190601f16801561083d5780820380516001836020036101000a031916815260200191505b5097505050505050505060405180910390f35b34801561085c57600080fd5b506109606004803603608081101561087357600080fd5b81019080803573ffffffffffffffffffffffffffffffffffffffff16906020019092919080359060200190929190803573ffffffffffffffffffffffffffffffffffffffff169060200190929190803590602001906401000000008111156108da57600080fd5b8201836020820111156108ec57600080fd5b8035906020019184600183028401116401000000008311171561090e57600080fd5b91908080601f016020809104026020016040519081016040528093929190818152602001838380828437600081840152601f19601f820116905080830192505050505050509192919290505050612a07565b005b610be06004803603608081101561097857600080fd5b810190808035906020019064010000000081111561099557600080fd5b8201836020820111156109a757600080fd5b803590602001918460018302840111640100000000831117156109c957600080fd5b91908080601f016020809104026020016040519081016040528093929190818152602001838380828437600081840152601f19601f82011690508083019250505050505050919291929080359060200190640100000000811115610a2c57600080fd5b820183602082011115610a3e57600080fd5b80359060200191846001830284011164010000000083111715610a6057600080fd5b91908080601f016020809104026020016040519081016040528093929190818152602001838380828437600081840152601f19601f82011690508083019250505050505050919291929080359060200190640100000000811115610ac357600080fd5b820183602082011115610ad557600080fd5b80359060200191846001830284011164010000000083111715610af757600080fd5b91908080601f016020809104026020016040519081016040528093929190818152602001838380828437600081840152601f19601f82011690508083019250505050505050919291929080359060200190640100000000811115610b5a57600080fd5b820183602082011115610b6c57600080fd5b80359060200191846001830284011164010000000083111715610b8e57600080fd5b91908080601f016020809104026020016040519081016040528093929190818152602001838380828437600081840152601f19601f820116905080830192505050505050509192919290505050612b7d565b005b348015610bee57600080fd5b50610cb260048036036040811015610c0557600080fd5b8101908080359060200190640100000000811115610c2257600080fd5b820183602082011115610c3457600080fd5b80359060200191846001830284011164010000000083111715610c5657600080fd5b91908080601f016020809104026020016040519081016040528093929190818152602001838380828437600081840152601f19601f82011690508083019250505050505050919291929080359060200190929190505050612eba565b60405180806020018060200180602001848103845287818151815260200191508051906020019080838360005b83811015610cfa578082015181840152602081019050610cdf565b50505050905090810190601f168015610d275780820380516001836020036101000a031916815260200191505b50848103835286818151815260200191508051906020019080838360005b83811015610d60578082015181840152602081019050610d45565b50505050905090810190601f168015610d8d5780820380516001836020036101000a031916815260200191505b50848103825285818151815260200191508051906020019080838360005b83811015610dc6578082015181840152602081019050610dab565b50505050905090810190601f168015610df35780820380516001836020036101000a031916815260200191505b50965050505050505060405180910390f35b348015610e1157600080fd5b50610ecb60048036036020811015610e2857600080fd5b8101908080359060200190640100000000811115610e4557600080fd5b820183602082011115610e5757600080fd5b80359060200191846001830284011164010000000083111715610e7957600080fd5b91908080601f016020809104026020016040519081016040528093929190818152602001838380828437600081840152601f19601f82011690508083019250505050505050919291929050505061321d565b60405180878152602001868152602001806020018060200185815260200180602001848103845288818151815260200191508051906020019080838360005b83811015610f25578082015181840152602081019050610f0a565b50505050905090810190601f168015610f525780820380516001836020036101000a031916815260200191505b50848103835287818151815260200191508051906020019080838360005b83811015610f8b578082015181840152602081019050610f70565b50505050905090810190601f168015610fb85780820380516001836020036101000a031916815260200191505b50848103825285818151815260200191508051906020019080838360005b83811015610ff1578082015181840152602081019050610fd6565b50505050905090810190601f16801561101e5780820380516001836020036101000a031916815260200191505b50995050505050505050505060405180910390f35b34801561103f57600080fd5b5061108c6004803603604081101561105657600080fd5b81019080803573ffffffffffffffffffffffffffffffffffffffff1690602001909291908035906020019092919050505061353f565b005b6611c37937e0800034101515156110a457600080fd5b60006003856040518082805190602001908083835b6020831015156110de57805182526020820191506020810190506020830392506110b9565b6001836020036101000a038019825116818451168082178552505050505050905001915050908152602001604051809103902060000154141561165957606060405190810160405280888152602001878152602001868152506002856040518082805190602001908083835b60208310151561116f578051825260208201915060208101905060208303925061114a565b6001836020036101000a0380198251168184511680821785525050505050509050019150509081526020016040518091039020600080815260200190815260200160002060008201518160000190805190602001906111cf92919061360b565b5060208201518160010190805190602001906111ec92919061360b565b50604082015181600201908051906020019061120992919061360b565b5090505060e060405190810160405280428152602001438152602001600081526020013373ffffffffffffffffffffffffffffffffffffffff168152602001848152602001838152602001828152506003856040518082805190602001908083835b602083101515611290578051825260208201915060208101905060208303925061126b565b6001836020036101000a038019825116818451168082178552505050505050905001915050908152602001604051809103902060008201518160000155602082015181600101556040820151816002015560608201518160030160006101000a81548173ffffffffffffffffffffffffffffffffffffffff021916908373ffffffffffffffffffffffffffffffffffffffff160217905550608082015181600401908051906020019061134492919061360b565b5060a082015181600501908051906020019061136192919061360b565b5060c082015181600601908051906020019061137e92919061360b565b509050507fe05a20ec1fc8f3904651886da119ec9c016cb4246def2183f3de13f2e4eae679600142898989898989604051808915151515815260200188815260200180602001806020018060200180602001806020018060200187810387528d818151815260200191508051906020019080838360005b838110156114105780820151818401526020810190506113f5565b50505050905090810190601f16801561143d5780820380516001836020036101000a031916815260200191505b5087810386528c818151815260200191508051906020019080838360005b8381101561147657808201518184015260208101905061145b565b50505050905090810190601f1680156114a35780820380516001836020036101000a031916815260200191505b5087810385528b818151815260200191508051906020019080838360005b838110156114dc5780820151818401526020810190506114c1565b50505050905090810190601f1680156115095780820380516001836020036101000a031916815260200191505b5087810384528a818151815260200191508051906020019080838360005b83811015611542578082015181840152602081019050611527565b50505050905090810190601f16801561156f5780820380516001836020036101000a031916815260200191505b50878103835289818151815260200191508051906020019080838360005b838110156115a857808201518184015260208101905061158d565b50505050905090810190601f1680156115d55780820380516001836020036101000a031916815260200191505b50878103825288818151815260200191508051906020019080838360005b8381101561160e5780820151818401526020810190506115f3565b50505050905090810190601f16801561163b5780820380516001836020036101000a031916815260200191505b509e50505050505050505050505050505060405180910390a161192c565b7fe05a20ec1fc8f3904651886da119ec9c016cb4246def2183f3de13f2e4eae679600042898989898989604051808915151515815260200188815260200180602001806020018060200180602001806020018060200187810387528d818151815260200191508051906020019080838360005b838110156116e75780820151818401526020810190506116cc565b50505050905090810190601f1680156117145780820380516001836020036101000a031916815260200191505b5087810386528c818151815260200191508051906020019080838360005b8381101561174d578082015181840152602081019050611732565b50505050905090810190601f16801561177a5780820380516001836020036101000a031916815260200191505b5087810385528b818151815260200191508051906020019080838360005b838110156117b3578082015181840152602081019050611798565b50505050905090810190601f1680156117e05780820380516001836020036101000a031916815260200191505b5087810384528a818151815260200191508051906020019080838360005b838110156118195780820151818401526020810190506117fe565b50505050905090810190601f1680156118465780820380516001836020036101000a031916815260200191505b50878103835289818151815260200191508051906020019080838360005b8381101561187f578082015181840152602081019050611864565b50505050905090810190601f1680156118ac5780820380516001836020036101000a031916815260200191505b50878103825288818151815260200191508051906020019080838360005b838110156118e55780820151818401526020810190506118ca565b50505050905090810190601f1680156119125780820380516001836020036101000a031916815260200191505b509e50505050505050505050505050505060405180910390a15b50505050505050565b60016020528060005260406000206000915090505481565b6611c37937e08000341015151561196357600080fd5b816003816040518082805190602001908083835b60208310151561199c5780518252602082019150602081019050602083039250611977565b6001836020036101000a038019825116818451168082178552505050505050905001915050908152602001604051809103902060030160009054906101000a900473ffffffffffffffffffffffffffffffffffffffff1673ffffffffffffffffffffffffffffffffffffffff163373ffffffffffffffffffffffffffffffffffffffff16141515611a2c57600080fd5b600082111515611a3b57600080fd5b60006003846040518082805190602001908083835b602083101515611a755780518252602082019150602081019050602083039250611a50565b6001836020036101000a03801982511681845116808217855250505050505090500191505090815260200160405180910390206000015414151561247a57816003846040518082805190602001908083835b602083101515611aec5780518252602082019150602081019050602083039250611ac7565b6001836020036101000a03801982511681845116808217855250505050505090500191505090815260200160405180910390206002015410151515611b3057600080fd5b600080905060006003856040518082805190602001908083835b602083101515611b6f5780518252602082019150602081019050602083039250611b4a565b6001836020036101000a038019825116818451168082178552505050505050905001915050908152602001604051809103902060020154905060008090505b8181111515612339578260ff1660011415611d3e576002866040518082805190602001908083835b602083101515611bfb5780518252602082019150602081019050602083039250611bd6565b6001836020036101000a038019825116818451168082178552505050505050905001915050908152602001604051809103902060008281526020019081526020016000206002876040518082805190602001908083835b602083101515611c775780518252602082019150602081019050602083039250611c52565b6001836020036101000a0380198251168184511680821785525050505050509050019150509081526020016040518091039020600060018403815260200190815260200160002060008201816000019080546001816001161561010002031660029004611ce592919061368b565b5060018201816001019080546001816001161561010002031660029004611d0d92919061368b565b5060028201816002019080546001816001161561010002031660029004611d3592919061368b565b5090505061232c565b6002866040518082805190602001908083835b602083101515611d765780518252602082019150602081019050602083039250611d51565b6001836020036101000a038019825116818451168082178552505050505050905001915050908152602001604051809103902060008281526020019081526020016000206000016040516020018082805460018160011615610100020316600290048015611e1b5780601f10611df9576101008083540402835291820191611e1b565b820191906000526020600020905b815481529060010190602001808311611e07575b5050915050604051602081830303815290604052805190602001206002876040518082805190602001908083835b602083101515611e6e5780518252602082019150602081019050602083039250611e49565b6001836020036101000a038019825116818451168082178552505050505050905001915050908152602001604051809103902060008781526020019081526020016000206000016040516020018082805460018160011615610100020316600290048015611f135780601f10611ef1576101008083540402835291820191611f13565b820191906000526020600020905b815481529060010190602001808311611eff575b50509150506040516020818303038152906040528051906020012014801561212857506002866040518082805190602001908083835b602083101515611f6e5780518252602082019150602081019050602083039250611f49565b6001836020036101000a0380198251168184511680821785525050505050509050019150509081526020016040518091039020600082815260200190815260200160002060010160405160200180828054600181600116156101000203166002900480156120135780601f10611ff1576101008083540402835291820191612013565b820191906000526020600020905b815481529060010190602001808311611fff575b5050915050604051602081830303815290604052805190602001206002876040518082805190602001908083835b6020831015156120665780518252602082019150602081019050602083039250612041565b6001836020036101000a03801982511681845116808217855250505050505090500191505090815260200160405180910390206000878152602001908152602001600020600101604051602001808280546001816001161561010002031660029004801561210b5780601f106120e957610100808354040283529182019161210b565b820191906000526020600020905b8154815290600101906020018083116120f7575b505091505060405160208183030381529060405280519060200120145b801561232157506002866040518082805190602001908083835b6020831015156121675780518252602082019150602081019050602083039250612142565b6001836020036101000a03801982511681845116808217855250505050505090500191505090815260200160405180910390206000828152602001908152602001600020600201604051602001808280546001816001161561010002031660029004801561220c5780601f106121ea57610100808354040283529182019161220c565b820191906000526020600020905b8154815290600101906020018083116121f8575b5050915050604051602081830303815290604052805190602001206002876040518082805190602001908083835b60208310151561225f578051825260208201915060208101905060208303925061223a565b6001836020036101000a0380198251168184511680821785525050505050509050019150509081526020016040518091039020600087815260200190815260200160002060020160405160200180828054600181600116156101000203166002900480156123045780601f106122e2576101008083540402835291820191612304565b820191906000526020600020905b8154815290600101906020018083116122f0575b505091505060405160208183030381529060405280519060200120145b1561232b57600192505b5b8080600101915050611bae565b5060018260ff1614151561234957fe5b6002856040518082805190602001908083835b602083101515612381578051825260208201915060208101905060208303925061235c565b6001836020036101000a03801982511681845116808217855250505050505090500191505090815260200160405180910390206000828152602001908152602001600020600080820160006123d69190613712565b6001820160006123e69190613712565b6002820160006123f69190613712565b50506003856040518082805190602001908083835b602083101515612430578051825260208201915060208101905060208303925061240b565b6001836020036101000a0380198251168184511680821785525050505050509050019150509081526020016040518091039020600201600081548092919060019003919050555050505b505050565b6000606080606061248e61375a565b6003866040518082805190602001908083835b6020831015156124c657805182526020820191506020810190506020830392506124a1565b6001836020036101000a038019825116818451168082178552505050505050905001915050908152602001604051809103902060e060405190810160405290816000820154815260200160018201548152602001600282015481526020016003820160009054906101000a900473ffffffffffffffffffffffffffffffffffffffff1673ffffffffffffffffffffffffffffffffffffffff1673ffffffffffffffffffffffffffffffffffffffff168152602001600482018054600181600116156101000203166002900480601f0160208091040260200160405190810160405280929190818152602001828054600181600116156101000203166002900480156126125780601f106125e757610100808354040283529160200191612612565b820191906000526020600020905b8154815290600101906020018083116125f557829003601f168201915b50505050508152602001600582018054600181600116156101000203166002900480601f0160208091040260200160405190810160405280929190818152602001828054600181600116156101000203166002900480156126b45780601f10612689576101008083540402835291602001916126b4565b820191906000526020600020905b81548152906001019060200180831161269757829003601f168201915b50505050508152602001600682018054600181600116156101000203166002900480601f0160208091040260200160405190810160405280929190818152602001828054600181600116156101000203166002900480156127565780601f1061272b57610100808354040283529160200191612756565b820191906000526020600020905b81548152906001019060200180831161273957829003601f168201915b50505050508152505090506127696137ae565b6002876040518082805190602001908083835b6020831015156127a1578051825260208201915060208101905060208303925061277c565b6001836020036101000a0380198251168184511680821785525050505050509050019150509081526020016040518091039020600080815260200190815260200160002060606040519081016040529081600082018054600181600116156101000203166002900480601f01602080910402602001604051908101604052809291908181526020018280546001816001161561010002031660029004801561288a5780601f1061285f5761010080835404028352916020019161288a565b820191906000526020600020905b81548152906001019060200180831161286d57829003601f168201915b50505050508152602001600182018054600181600116156101000203166002900480601f01602080910402602001604051908101604052809291908181526020018280546001816001161561010002031660029004801561292c5780601f106129015761010080835404028352916020019161292c565b820191906000526020600020905b81548152906001019060200180831161290f57829003601f168201915b50505050508152602001600282018054600181600116156101000203166002900480601f0160208091040260200160405190810160405280929190818152602001828054600181600116156101000203166002900480156129ce5780601f106129a3576101008083540402835291602001916129ce565b820191906000526020600020905b8154815290600101906020018083116129b157829003601f168201915b50505050508152505090508160600151816000015182602001518360400151829250819150809050955095509550955050509193509193565b60008290508073ffffffffffffffffffffffffffffffffffffffff166323b872dd8630876040518463ffffffff167c0100000000000000000000000000000000000000000000000000000000028152600401808473ffffffffffffffffffffffffffffffffffffffff1673ffffffffffffffffffffffffffffffffffffffff1681526020018373ffffffffffffffffffffffffffffffffffffffff1673ffffffffffffffffffffffffffffffffffffffff1681526020018281526020019350505050602060405180830381600087803b158015612ae357600080fd5b505af1158015612af7573d6000803e3d6000fd5b505050506040513d6020811015612b0d57600080fd5b81019080805190602001909291905050501515612b2957600080fd5b83600160008773ffffffffffffffffffffffffffffffffffffffff1673ffffffffffffffffffffffffffffffffffffffff168152602001908152602001600020600082825401925050819055505050505050565b6611c37937e080003410151515612b9357600080fd5b806003816040518082805190602001908083835b602083101515612bcc5780518252602082019150602081019050602083039250612ba7565b6001836020036101000a038019825116818451168082178552505050505050905001915050908152602001604051809103902060030160009054906101000a900473ffffffffffffffffffffffffffffffffffffffff1673ffffffffffffffffffffffffffffffffffffffff163373ffffffffffffffffffffffffffffffffffffffff16141515612c5c57600080fd5b60006003836040518082805190602001908083835b602083101515612c965780518252602082019150602081019050602083039250612c71565b6001836020036101000a038019825116818451168082178552505050505050905001915050908152602001604051809103902060000154141515612eb3576003826040518082805190602001908083835b602083101515612d0c5780518252602082019150602081019050602083039250612ce7565b6001836020036101000a038019825116818451168082178552505050505050905001915050908152602001604051809103902060020160008154809291906001019190505550606060405190810160405280868152602001858152602001848152506002836040518082805190602001908083835b602083101515612da65780518252602082019150602081019050602083039250612d81565b6001836020036101000a038019825116818451168082178552505050505050905001915050908152602001604051809103902060006003856040518082805190602001908083835b602083101515612e135780518252602082019150602081019050602083039250612dee565b6001836020036101000a03801982511681845116808217855250505050505090500191505090815260200160405180910390206002015481526020019081526020016000206000820151816000019080519060200190612e7492919061360b565b506020820151816001019080519060200190612e9192919061360b565b506040820151816002019080519060200190612eae92919061360b565b509050505b5050505050565b60608060606002856040518082805190602001908083835b602083101515612ef75780518252602082019150602081019050602083039250612ed2565b6001836020036101000a038019825116818451168082178552505050505050905001915050908152602001604051809103902060008581526020019081526020016000206000016002866040518082805190602001908083835b602083101515612f765780518252602082019150602081019050602083039250612f51565b6001836020036101000a038019825116818451168082178552505050505050905001915050908152602001604051809103902060008681526020019081526020016000206001016002876040518082805190602001908083835b602083101515612ff55780518252602082019150602081019050602083039250612fd0565b6001836020036101000a03801982511681845116808217855250505050505090500191505090815260200160405180910390206000878152602001908152602001600020600201828054600181600116156101000203166002900480601f0160208091040260200160405190810160405280929190818152602001828054600181600116156101000203166002900480156130d15780601f106130a6576101008083540402835291602001916130d1565b820191906000526020600020905b8154815290600101906020018083116130b457829003601f168201915b50505050509250818054600181600116156101000203166002900480601f01602080910402602001604051908101604052809291908181526020018280546001816001161561010002031660029004801561316d5780601f106131425761010080835404028352916020019161316d565b820191906000526020600020905b81548152906001019060200180831161315057829003601f168201915b50505050509150808054600181600116156101000203166002900480601f0160208091040260200160405190810160405280929190818152602001828054600181600116156101000203166002900480156132095780601f106131de57610100808354040283529160200191613209565b820191906000526020600020905b8154815290600101906020018083116131ec57829003601f168201915b505050505090509250925092509250925092565b6000806060806000606061322f61375a565b6003886040518082805190602001908083835b6020831015156132675780518252602082019150602081019050602083039250613242565b6001836020036101000a038019825116818451168082178552505050505050905001915050908152602001604051809103902060e060405190810160405290816000820154815260200160018201548152602001600282015481526020016003820160009054906101000a900473ffffffffffffffffffffffffffffffffffffffff1673ffffffffffffffffffffffffffffffffffffffff1673ffffffffffffffffffffffffffffffffffffffff168152602001600482018054600181600116156101000203166002900480601f0160208091040260200160405190810160405280929190818152602001828054600181600116156101000203166002900480156133b35780601f10613388576101008083540402835291602001916133b3565b820191906000526020600020905b81548152906001019060200180831161339657829003601f168201915b50505050508152602001600582018054600181600116156101000203166002900480601f0160208091040260200160405190810160405280929190818152602001828054600181600116156101000203166002900480156134555780601f1061342a57610100808354040283529160200191613455565b820191906000526020600020905b81548152906001019060200180831161343857829003601f168201915b50505050508152602001600682018054600181600116156101000203166002900480601f0160208091040260200160405190810160405280929190818152602001828054600181600116156101000203166002900480156134f75780601f106134cc576101008083540402835291602001916134f7565b820191906000526020600020905b8154815290600101906020018083116134da57829003601f168201915b50505050508152505090508060000151816020015182608001518360a0015184604001518560c001518393508292508090509650965096509650965096505091939550919395565b6000809054906101000a900473ffffffffffffffffffffffffffffffffffffffff1673ffffffffffffffffffffffffffffffffffffffff163373ffffffffffffffffffffffffffffffffffffffff1614151561359a57600080fd5b803073ffffffffffffffffffffffffffffffffffffffff1631101515156135c057600080fd5b8173ffffffffffffffffffffffffffffffffffffffff166108fc829081150290604051600060405180830381858888f19350505050158015613606573d6000803e3d6000fd5b505050565b828054600181600116156101000203166002900490600052602060002090601f016020900481019282601f1061364c57805160ff191683800117855561367a565b8280016001018555821561367a579182015b8281111561367957825182559160200191906001019061365e565b5b50905061368791906137d0565b5090565b828054600181600116156101000203166002900490600052602060002090601f016020900481019282601f106136c45780548555613701565b8280016001018555821561370157600052602060002091601f016020900482015b828111156137005782548255916001019190600101906136e5565b5b50905061370e91906137d0565b5090565b50805460018160011615610100020316600290046000825580601f106137385750613757565b601f01602090049060005260206000209081019061375691906137d0565b5b50565b60e060405190810160405280600081526020016000815260200160008152602001600073ffffffffffffffffffffffffffffffffffffffff1681526020016060815260200160608152602001606081525090565b6060604051908101604052806060815260200160608152602001606081525090565b6137f291905b808211156137ee5760008160009055506001016137d6565b5090565b9056fea165627a7a72305820c1aa0975877cdd6de202111a05e28dfef898e0153099c8dd6dca1715400796900029",
  "source": "pragma solidity >=0.4.22 <0.6.0;\r\n\r\ninterface Token { \r\n    function transferFrom(address _from, address _to, uint256 _value) external returns (bool success);\r\n    function transfer(address _to, uint256 _value) external;\r\n}\r\n\r\ncontract tokenRecipient {\r\n    event receivedTokens(address _from, uint256 _value, address _token, bytes _extraData);\r\n    function receiveApproval(address _from, uint256 _value, address _token, bytes memory _extraData) public; \r\n}\r\n\r\ncontract ProofDevelodio\r\n{\r\n    address private _owner;\r\n\r\n    // The stored balance of tokens associated with the user\r\n    mapping (address => uint256) public payers;\r\n\r\n    struct OwnerDetails {\r\n        string firstname;\r\n        string lastname;\r\n        string email;\r\n    }\r\n\r\n    mapping(string => mapping(uint => OwnerDetails)) _owners;\r\n\r\n    struct FileDetails {\r\n        uint timestamp;\r\n        uint blockNumber;\r\n        uint ownerNumbers;\r\n        address mainOwner;\r\n        string ipfsHash;\r\n        string ipfsFileType;\r\n        string comments;\r\n    }\r\n\r\n    mapping(string => FileDetails) _files;\r\n\r\n    modifier validOwner() {\r\n        require(msg.sender == _owner);\r\n        _;\r\n    }\r\n\r\n    modifier validValue() {\r\n        require(msg.value >= 5000000000000000);\r\n        _;\r\n    }\r\n\r\n    modifier validMainFileOwner(string memory fileHash) {\r\n        require(msg.sender == _files[fileHash].mainOwner);\r\n        _;\r\n    }\r\n\r\n    event logFileAddedStatus(bool status, uint timestamp, string firstname, string lastname, string email, string fileHash, string ipfsHash, string ipfsFileType);\r\n\r\n    constructor() public {\r\n        _owner = msg.sender;\r\n    }\r\n\r\n    function() external payable {}\r\n\r\n    /**\r\n     * Set allowance for other address and notify\r\n     *\r\n     * Allows user to pay for a service with approveAndCall()\r\n     *\r\n     * @param _from is the address of the user\r\n     * @param _value is the tokens the user deposited to the service contract\r\n     * @param _token is the address of the token contract\r\n     * @param _extraData is additional data (optional)\r\n     */\r\n    function receiveApproval(address _from, uint256 _value, address _token, bytes memory _extraData) public {\r\n        Token t = Token(_token);\r\n        require(t.transferFrom(_from, address(this), _value));\r\n        payers[_from] += _value;\r\n        //ReceivedTokens(_from, _value, _token, _extraData);\r\n    }\r\n\r\n    function withdraw(address payable to, uint amount) validOwner public {\r\n        require(address(this).balance >= amount);\r\n        to.transfer(amount);\r\n    }\r\n\r\n    function setFile(string memory firstname, string memory lastname, string memory email, string memory fileHash, string memory ipfsHash, string memory ipfsFileType, string memory comments) validValue public payable {\r\n        if (_files[fileHash].timestamp == 0) {\r\n            _owners[fileHash][0] = OwnerDetails(firstname, lastname, email);\r\n            _files[fileHash] = FileDetails(block.timestamp, block.number, 0, msg.sender, ipfsHash, ipfsFileType, comments);\r\n            emit logFileAddedStatus(true, block.timestamp, firstname, lastname, email, fileHash, ipfsHash, ipfsFileType);\r\n        }\r\n        else {\r\n            emit logFileAddedStatus(false, block.timestamp, firstname, lastname, email, fileHash, ipfsHash, ipfsFileType);\r\n        }\r\n    }\r\n\r\n    function addOwner(string memory firstname, string memory lastname, string memory email, string memory fileHash) validValue validMainFileOwner(fileHash) public payable {\r\n        if (_files[fileHash].timestamp != 0) {\r\n            _files[fileHash].ownerNumbers++;\r\n            _owners[fileHash][_files[fileHash].ownerNumbers] = OwnerDetails(firstname, lastname, email);\r\n        }\r\n    }\r\n\r\n    function removeOwner(string memory fileHash, uint ownerNumber) validValue validMainFileOwner(fileHash) public payable {\r\n        require(ownerNumber > 0);\r\n        if (_files[fileHash].timestamp != 0) {\r\n            require(_files[fileHash].ownerNumbers >= ownerNumber);\r\n            uint8 replace = 0;\r\n            uint length = _files[fileHash].ownerNumbers;\r\n            for(uint i = 0; i <= length; i++) {\r\n                if (1 == replace) {\r\n                        _owners[fileHash][i-1] = _owners[fileHash][i];\r\n                    } else if (keccak256(abi.encodePacked(_owners[fileHash][ownerNumber].firstname)) == keccak256(abi.encodePacked(_owners[fileHash][i].firstname))\r\n                    && keccak256(abi.encodePacked(_owners[fileHash][ownerNumber].lastname)) == keccak256(abi.encodePacked(_owners[fileHash][i].lastname))\r\n                    && keccak256(abi.encodePacked(_owners[fileHash][ownerNumber].email)) == keccak256(abi.encodePacked(_owners[fileHash][i].email))) {\r\n                        replace = 1;\r\n                }\r\n            }\r\n            assert(replace == 1);\r\n            delete _owners[fileHash][length];\r\n            _files[fileHash].ownerNumbers--;\r\n        }\r\n    }\r\n\r\n    function getFile(string memory fileHash) public view returns (\r\n        uint timestamp,\r\n        uint blockNumber,\r\n        string memory ipfsHash,\r\n        string memory ipfsFileType,\r\n        uint ownerNumbers,\r\n        string memory comments)\r\n    {\r\n        FileDetails memory fileDetails = _files[fileHash];\r\n        return (\r\n            fileDetails.timestamp,\r\n            fileDetails.blockNumber,\r\n            fileDetails.ipfsHash,\r\n            fileDetails.ipfsFileType,\r\n            fileDetails.ownerNumbers,\r\n            fileDetails.comments\r\n        );\r\n    }\r\n\r\n    function getMainFileOwner(string memory fileHash) public view returns (\r\n        address mainOwner,\r\n        string memory firstname,\r\n        string memory lastname,\r\n        string memory email)\r\n    {\r\n        FileDetails memory fileDetails = _files[fileHash];\r\n        OwnerDetails memory ownerDetails = _owners[fileHash][0];\r\n        return (\r\n            fileDetails.mainOwner,\r\n            ownerDetails.firstname,\r\n            ownerDetails.lastname,\r\n            ownerDetails.email\r\n        );\r\n    }\r\n\r\n    function getFileOwner(string memory fileHash, uint ownerNumber) public view returns (\r\n        string memory ownerFirstName,\r\n        string memory ownerLastName,\r\n        string memory ownerEmail) {\r\n        return (\r\n            _owners[fileHash][ownerNumber].firstname,\r\n            _owners[fileHash][ownerNumber].lastname,\r\n            _owners[fileHash][ownerNumber].email\r\n        );\r\n    }\r\n\r\n}\r\n",
  "sourcePath": "E:/DVLToken/contracts/ProofDevelodio.sol",
  "compiler": {
    "name": "solc",
    "version": "0.5.1+commit.c8a2cb62.Emscripten.clang"
  },
  "schemaVersion": "3.0.0-beta.2",
  "updatedAt": "2018-12-05T17:04:35.255Z",
  "devdoc": {
    "methods": {
      "receiveApproval(address,uint256,address,bytes)": {
        "params": {
          "_extraData": "is additional data (optional)\r",
          "_from": "is the address of the user\r",
          "_token": "is the address of the token contract\r",
          "_value": "is the tokens the user deposited to the service contract\r"
        }
      }
    }
  },
  "userdoc": {
    "methods": {
      "receiveApproval(address,uint256,address,bytes)": {
        "notice": "Set allowance for other address and notify\r      * Allows user to pay for a service with approveAndCall()\r "
      }
    }
  }
}